:020000040800F2
:1000000000000220110E0008690C00086B0C0008AB
:100010006D0C00086F0C0008710C00080000000057
:10002000000000000000000000000000E12D0008BA
:10003000730C000800000000812E0008252B00082A
:10004000610E0008610E0008610E0008610E0008D4
:10005000610E0008610E0008610E0008610E0008C4
:10006000610E0008750C00087F0C0008610E000886
:10007000610E0008610E0008610E0008610E0008A4
:10008000610E0008610E0008610E0008610E000894
:10009000610E0008610E0008610E0008890C00085E
:1000A000610E0008610E0008610E0008610E000874
:1000B000A10C0008610E0008610E0008610E000826
:1000C000610E0008610E0008610E0008610E000854
:1000D000610E0008610E0008610E0008610E000844
:1000E000610E0008610E0008610E0008610E000834
:1000F000610E0008610E0008610E0008610E000824
:10010000610E0008610E0008610E0008610E000813
:10011000610E0008610E0008610E0008610E000803
:10012000610E0008610E0008610E0008610E0008F3
:10013000610E0008610E0008610E0008610E0008E3
:10014000610E0008610E0008610E0008610E0008D3
:10015000610E0008610E0008610E0008610E0008C3
:10016000610E0008610E0008610E0008610E0008B3
:10017000610E0008610E0008610E0008000000001A
:08018000610E0008610E000889
:1001900010B5054C237833B9044B13B10448AFF3C1
:1001A00000800123237010BDF8080020000000002B
:1001B0004C8E000808B5034B1BB103490348AFF34D
:1001C000008008BD00000000FC0800204C8E0008E4
:1001D00053B94AB9002908BF00281CBF4FF0FF31AE
:1001E0004FF0FF3000F074B9ADF1080C6DE904CEAA
:1001F00000F006F8DDF804E0DDE9022304B0704702
:100200002DE9F047089D04468E46002B4DD18A42C9
:10021000944669D9B2FA82F252B101FA02F3C2F1FC
:10022000200120FA01F10CFA02FC41EA030E94408D
:100230004FEA1C48210CBEFBF8F61FFA8CF708FBAE
:1002400016E341EA034306FB07F199420AD91CEB86
:10025000030306F1FF3080F01F81994240F21C81B8
:10026000023E63445B1AA4B2B3FBF8F008FB103300
:1002700044EA034400FB07F7A7420AD91CEB040435
:1002800000F1FF3380F00A81A74240F20781644405
:10029000023840EA0640E41B00261DB1D44000238A
:1002A000C5E900433146BDE8F0878B4209D9002DEE
:1002B00000F0EF800026C5E9000130463146BDE878
:1002C000F087B3FA83F6002E4AD18B4202D38242E2
:1002D00000F2F980841A61EB030301209E46002D91
:1002E000E0D0C5E9004EDDE702B9FFDEB2FA82F2E6
:1002F000002A40F09280A1EB0C014FEA1C471FFA44
:100300008CFE0126200CB1FBF7F307FB131140EA2A
:1003100001410EFB03F0884208D91CEB010103F1F7
:10032000FF3802D2884200F2CB804346091AA4B2B9
:10033000B1FBF7F007FB101144EA01440EFB00FE8D
:10034000A64508D91CEB040400F1FF3102D2A645F2
:1003500000F2BB800846A4EB0E0440EA03409CE791
:10036000C6F12007B34022FA07FC4CEA030C20FA3E
:1003700007F401FA06F31C43F9404FEA1C4900FA5E
:1003800006F3B1FBF9F8200C1FFA8CFE09FB1811DB
:1003900040EA014108FB0EF0884202FA06F20BD94E
:1003A0001CEB010108F1FF3A80F08880884240F29E
:1003B0008580A8F102086144091AA4B2B1FBF9F0E2
:1003C00009FB101144EA014100FB0EFE8E4508D9DD
:1003D0001CEB010100F1FF346CD28E456AD9023862
:1003E000614440EA0840A0FB0294A1EB0E01A14247
:1003F000C846A64656D353D05DB1B3EB080261EBB5
:100400000E0101FA07F722FA06F3F1401F43C5E98E
:10041000007100263146BDE8F087C2F12003D840C4
:100420000CFA02FC21FA03F3914001434FEA1C4706
:100430001FFA8CFEB3FBF7F007FB10360B0C43EAF8
:10044000064300FB0EF69E4204FA02F408D91CEBA8
:10045000030300F1FF382FD29E422DD902386344A6
:100460009B1B89B2B3FBF7F607FB163341EA034146
:1004700006FB0EF38B4208D91CEB010106F1FF3895
:1004800016D28B4214D9023E6144C91A46EA00468C
:1004900038E72E46284605E70646E3E61846F8E61E
:1004A0004B45A9D2B9EB020864EB0C0E0138A3E767
:1004B0004646EAE7204694E74046D1E7D0467BE748
:1004C000023B614432E7304609E76444023842E7C0
:1004D000704700BF844641EA000313F003036DD167
:1004E000403A41D351F8043B40F8043B51F8043BF7
:1004F00040F8043B51F8043B40F8043B51F8043BFE
:1005000040F8043B51F8043B40F8043B51F8043BED
:1005100040F8043B51F8043B40F8043B51F8043BDD
:1005200040F8043B51F8043B40F8043B51F8043BCD
:1005300040F8043B51F8043B40F8043B51F8043BBD
:1005400040F8043B51F8043B40F8043B51F8043BAD
:1005500040F8043B51F8043B40F8043B51F8043B9D
:1005600040F8043B403ABDD2303211D351F8043B3D
:1005700040F8043B51F8043B40F8043B51F8043B7D
:1005800040F8043B51F8043B40F8043B103AEDD2EC
:100590000C3205D351F8043B40F8043B043AF9D23D
:1005A000043208D0D2071CBF11F8013B00F8013B10
:1005B00001D30B8803806046704700BF082A13D31D
:1005C0008B078DD010F003038AD0C3F10403D21A35
:1005D000DB071CBF11F8013B00F8013B80D331F869
:1005E000023B20F8023B7BE7043AD9D3013A11F8E9
:1005F000013B00F8013BF9D20B7803704B78437054
:100600008B7883706046704710B582B000240194E7
:100610000D4B1A6B42F480021A631B6B03F48003C8
:100620000193019B224605213A2000F081FF3A20E8
:1006300000F0B6FF224605213B2000F079FF3B2069
:1006400000F0AEFF02B010BD0038024008B50B4A02
:1006500000210B4802F0A0FA0A4B18600A4A002158
:100660000A4802F099FA0A4B18600A4A00210A481F
:1006700002F092FA094B186008BD00BF888E00088E
:10068000597A000814090020D08E00086D7A0008FD
:100690001C090020AC8E00089D7A00081809002073
:1006A0002DE9F04F8FB0002409940A940B940C9418
:1006B0000D9401948C4B1A6B42F040021A631A6B32
:1006C00002F040020192019A02941A6B42F0020277
:1006D0001A631A6B02F002020292029A03941A6BD6
:1006E00042F001021A631A6B02F001020392039AAC
:1006F00004941A6B42F008021A631A6B02F00802A3
:100700000492049A05941A6B42F480721A631A6B6D
:1007100002F480720592059A06941A6B42F08002E8
:100720001A631A6B02F080020692069A07941A6BFB
:1007300042F004021A631A6B02F004020792079A4D
:1007400008941A6B42F020021A631B6B03F020031B
:100750000893089B22464FF48071644801F0F0F83A
:10076000DFF89C9101224021484601F0E9F801227E
:100770004FF4C0515E4801F0E3F8DFF888810122B0
:100780001021404601F0DCF85A4F012241F20101EC
:10079000384601F0D5F84FF48443099302250A95B1
:1007A0000B9403260C9608230D9309A9484600F0E4
:1007B000D5FF802309930A950B940C9607230D937C
:1007C00009A9384600F0CAFF09960A950B940C96C1
:1007D0004FF0090BCDF834B009A9474800F0BEFF2F
:1007E000C02309934FF4881ACDF828A00B9409A9C7
:1007F000424800F0B3FF4FF4007309930A950B943D
:100800000C9607230D9309A9404600F0A7FF4FF46B
:100810008073099301260A960B940C9409A9334816
:1008200000F09CFF402309930A960B960C9609A9A9
:10083000484600F093FF4FF4C05309930A960B9675
:100840000C9609A92A4800F089FF08230993CDF8DE
:1008500028A00B9609A9484600F080FF09960A9443
:100860000B9609A9404600F079FF102309930A96D8
:100870000B960C9509A9404600F070FF30230993B0
:10088000CDF828A00B9609A9184800F067FF4FF48F
:10089000805309930A960B960C9609A9384600F0E6
:1008A0005DFF09960A960B960C9509A9384600F04B
:1008B00055FF22460521584600F03AFE584600F002
:1008C0006FFE224605210A2000F032FE0A2000F0C9
:1008D00067FE22460521172000F02AFE172000F0AF
:1008E0005FFE0FB0BDE8F08F003802400008024004
:1008F000001C024000040240000C024000200240A4
:10090000001802400000024008B50368B3F1804FB0
:1009100000D008BD00F0D4FDFBE772B6FEE7000092
:1009200000B595B03022002108A807F0B3FB0023E2
:10093000039304930593069307930193204A116C44
:1009400041F080511164126C02F080520192019AC0
:1009500002931C4B1A6842F480421A601B6803F42D
:1009600080430293029B012308934FF48033099341
:1009700002230E934FF480020F9206221092A822B7
:10098000119212930423139308A800F0EFFF98B973
:100990000F23039302230493002305934FF4A053E2
:1009A00006934FF480530793052103A801F02CFA16
:1009B00020B915B05DF804FBFFF7AFFFFFF7ADFFFF
:1009C000003802400070004008B500F05FFDFFF7FE
:1009D000A7FFFFF765FEFFF717FE00F015F800F020
:1009E000DDF9A82005F0C0FA0121064804F014FB47
:1009F0000028F9D102F0A2F8FFF728FE02F0B0F8C3
:100A0000FEE700BFE009002008B50F480F4B036068
:100A10004FF48273436000238360C360022202614B
:100A2000012242614FF4007282611022C2610362AE
:100A3000436283620A23C36201F068FB00B908BD08
:100A4000FFF76BFFFBE700BFE0090020003001402B
:100A50002DE9F04389B00023039304930593069393
:100A6000079302683F4B9A4202D009B0BDE8F08379
:100A700004460025009503F584335A6C42F48052F5
:100A80005A645A6C02F480520092009A01951A6BD3
:100A900042F002021A631A6B02F002020192019AFA
:100AA00002951A6B42F001021A631B6B03F00103FB
:100AB0000293029B182303934FF00209CDF8109084
:100AC0004FF00108CDF814800327069705260796F6
:100AD00003A9254800F042FE80230393CDF810902F
:100AE000CDF814800697079603A9204800F036FE3B
:100AF0001F48204B03604FF0C06343608560C560B2
:100B00004FF48063036145618561C5614FF44033F3
:100B10000362456200F0BCFDE8B9154BE3649C63D9
:100B20001548164B03604FF0C06343604023836059
:100B30000023C3604FF48062026143618361C3613B
:100B40004FF400320262436200F0A2FD30B90A4B5A
:100B5000A3649C6389E7FFF7E0FEDEE7FFF7DDFEB5
:100B6000F5E700BF003001400004024000000240F1
:100B7000200900204064024080090020586402409F
:100B800000B583B0002200920D4B596C41F48041B6
:100B90005964596C01F48041009100990192196CDB
:100BA00041F0805119641B6C03F080530193019B49
:100BB0000F216FF0010000F0BBFC03B05DF804FBF7
:100BC0000038024030B589B0044600230193224B1F
:100BD0001A6C42F001021A641B6C03F001030193CA
:100BE000019B02A903A801F0D5F9069BD3B901F036
:100BF000C1F903461948A0FB03239B0C013B18488D
:100C00004FF08042026040F2E732C260436000234E
:100C100003618360836101F0F3FD054630B128462E
:100C200009B030BD01F0A6F94300E3E70C4801F03C
:100C30007DFC05460028F2D11C2000F0B1FC0F2CF1
:100C400001D90125EBE7002221461C2000F070FCB1
:100C5000044B1C60E3E700BF0038024083DE1B4307
:100C6000380A002008000020FEE7FEE7FEE7FEE766
:100C7000FEE7704708B5082000F06AFE08BD08B519
:100C8000102000F065FE08BD08B5202000F060FED1
:100C9000402000F05DFE802000F05AFE08BD0000FC
:100CA00008B5024801F08BFC08BD00BF380A0020DF
:100CB00010B503460C4A0D490D48006840B10C4878
:100CC00000680344521A934206D8094A136010BDC3
:100CD0000748084C0460F2E706F0FAFE0C230360B4
:100CE0004FF0FF30F3E700BF0000022000040000D7
:100CF000800A0020C8610020034AD2F8883043F4FB
:100D00007003C2F88830704700ED00E00268094BBC
:100D10009A4200D0704782B000230193064B5A6C70
:100D200042F400325A645B6C03F400330193019B7C
:100D300002B07047004401400038024000B587B05F
:100D40000023019302930393049305930268104BCD
:100D50009A4202D007B05DF804FB002300930D4BCC
:100D60001A6B42F020021A631B6B03F020030093FE
:100D7000009B4023019302230293012203920493D8
:100D80000323059301A9044800F0E8FCE2E700BF53
:100D900000440140003802400014024000B589B010
:100DA00000230193029303930493059306930793FF
:100DB0001548164A026053224260836040F2CF72A7
:100DC000C2600361836101F01BFDA0B90E4801F010
:100DD00043FD98B960230193002202920392059289
:100DE00001A9094801F09CFD58B90748FFF7A6FF83
:100DF00009B05DF804FBFFF790FDE7E7FFF78DFD15
:100E0000E8E7FFF78AFDF0E7840A0020004401408C
:100E1000DFF834D00D480E490E4A002302E0D458C2
:100E2000C4500433C4188C42F9D30B4A0B4C002332
:100E300001E013600432A242FBD3FFF75DFF06F02E
:100E40004DFEFFF7C1FD70470000022000000020AA
:100E5000F40800205C980008F8080020C461002015
:100E6000FEE70000DFED1E7A20EE270AF5EE007A9D
:100E700030EE270AFDEEC07AB5EEC00AF1EE10FAA8
:100E800028D4F8EEE77A70EE677A9FED160A67EEDF
:100E9000807ABCEEE77A17EE103AC3F3080307EE48
:100EA000103AB8EE470A77EEC07A0F4A02EB830198
:100EB000D1ED006A013302EB830393ED007AB7EEC4
:100EC000000A30EE670A20EE260A67EE877A30EED7
:100ED000270A704717EE903A013B07EE903AD0E7A9
:100EE00083F9223E000000440C8F0008B5EEC00AD2
:100EF000F1EE10FA33D4DFED217A60EE277ABDEE01
:100F0000E77AB5EEC00AF1EE10FA30D4B8EEC77A3F
:100F100077EEC77A9FED1A0A67EE807ABCEEE77A21
:100F200017EE103AC3F3080307EE103AB8EE470A7B
:100F300077EEC07A134A02EB8301D1ED006A0133E8
:100F400002EB830393ED007AB7EE000A30EE670AF6
:100F500020EE260A67EE877A30EE270A7047DFED2B
:100F60000A7AB4EEE70AF1EE10FAC4DBF6E717EE00
:100F7000103A013B07EE103AC8E700BF83F9223E62
:100F8000000000440C8F0008CD024CB470B44368DC
:100F90004C685568066809688E423FD112689642CF
:100FA0003FD10288418801FB02F2910823E0D3ED92
:100FB000006A94ED007AD3ED017A76EE876A94EDBB
:100FC000016A93ED027A77EE867A94ED026AC5EDB6
:100FD000006AC5ED017AD3ED037AD4ED036A37EEEA
:100FE000067A77EEA67A85ED027AC5ED037A10339C
:100FF0001034103501390029D9D102F0030208E07C
:10100000F3EC017AB4EC017A77EE877AE5EC017AB9
:10101000013A002AF4D1002070BC70476FF0020042
:10102000FAE76FF00200F7E7018042804360704703
:101030002DE9F04F83B002460190D0F804B0486823
:101040000090B2F800E0B2F802C0E64540F0E68059
:101050000B884A88934240F0E4809E4540F0E4804B
:101060007546034612E0002143F8041B013A002AAA
:10107000F9D14FF07E5243F8042B013D2A4603E09C
:10108000002143F8041B013A002AF9D115B1AEEB57
:101090000502ECE7E146DFED6C6A93E0F1EE677A7A
:1010A000F4EEC77AF1EE10FA13DC02EB8C02013396
:1010B000734511D2D2ED007AF5EEC07AF1EE10FA56
:1010C000ECDDF4EEC77AF1EE10FAEEDDB0EE677A01
:1010D000EBE7B0EE677AE8E7B5EE407AF1EE10FAAA
:1010E00000F0A580F5EEC06AF1EE10FA13DDF0EE27
:1010F000667AB4EE677AF1EE10FA0FD1F5EE406A37
:10110000F1EE10FA00F09880D8ED006AACEB05061D
:101110003246434611E0F1EE667AEAE7AEEB0503AC
:10112000013B00E0013B002BFCD1E7E793ED007AA7
:10113000C7EE267AE3EC017A013A002AF6D160463E
:10114000534606E093ED007AC7EE267AE3EC017A87
:1011500001380028F6D17446009A5B4625E003EB7F
:10116000860302EB8C021CE0D3ED007AB1EC017A2D
:1011700027EE267A77EEC77AE3EC017A013F002F5B
:10118000F2D1674651460AE0D2ED007AB1EC017A1D
:1011900027EE267A77EEC77AE2EC017A013F002F3C
:1011A000F2D103EB8503013C013034B1A842D6D023
:1011B000D3ED006A37464146E1E70BF1040B09F134
:1011C000FF390135B9F1000F0DD00CFB05FA0BEB1F
:1011D0008A08009B03EB8A0AD8ED006A2B46424638
:1011E0009FED197A64E7F5EE406AF1EE10FA26D128
:1011F000019B596801E009F101090CFB0EF34B4515
:1012000008D901EB8902D2ED007AF5EE407AF1EED1
:1012100010FAF0D04B4514D000200AE06FF0020025
:1012200007E06FF0020004E06FF0020001E06FF0F1
:10123000040003B0BDE8F08F6FF00400F9E7002070
:10124000F7E76FF00400F4E7000000002DE9F04735
:10125000044613464568D2F8049007884888B4F8D5
:1012600002E00A8872456BD10E461A88BA426AD1EA
:101270005B8883426AD14FF0000857E0D3ED006AE3
:1012800003EB800392ED006A92ED017A66EE866AC6
:1012900076EEA77AD3ED006A03EB800327EE267A79
:1012A00077EE276A93ED007A03EB800392ED026AF2
:1012B000D2ED037A27EE067A37EE267AD3ED006A6E
:1012C00003EB800367EEA67A77EE877A1032013956
:1012D00089B20029D2D10EF003010BE0B2EC017A01
:1012E000D3ED006A27EE267A77EE877A03EB800348
:1012F000013989B20029F1D1EAEC017A0CF1010C33
:101300001FFA8CFC736803EB8C03013CA4B22CB174
:101310004FEA9E012A46DFED0F7ADAE780441FFA92
:1013200088F805EB8E05013FBFB237B109EB880A9B
:10133000736804464FF0000CEAE70020BDE8F08730
:101340006FF00200FAE76FF00200F7E76FF00200BB
:10135000F4E700BF0000000070B443684C685568B3
:10136000066809688E423FD1126896423FD10288D2
:10137000418801FB02F2910823E0D3ED006A94ED6D
:10138000007AD3ED017A76EEC76A94ED016A93EDA7
:10139000027A77EEC67A94ED026AC5ED006AC5ED71
:1013A000017AD3ED037AD4ED036A37EE467A77EE0D
:1013B000E67A85ED027AC5ED037A103310341035E4
:1013C00001390029D9D102F0030208E0F3EC017AD7
:1013D000B4EC017A77EEC77AE5EC017A013A002A9B
:1013E000F4D1002070BC70476FF00200FAE76FF094
:1013F0000200F7E730B542684D68B0F800C0B0F8B9
:1014000002E04B8863453BD10B8873453BD1644672
:1014100000202EE0D2ED007AC3ED007A03EB8C03BE
:10142000D2ED017AC3ED007A03EB8C03D2ED027AA0
:10143000C3ED007A03EB8C03D2ED037AC3ED007A9F
:1014400003EB8C03013989B210320029E2D10EF08E
:10145000030107E0F2EC017AC3ED007A03EB8C03A1
:10146000013989B20029F5D1013080B2013CA4B222
:1014700024B14FEA9E0105EB8003E6E7002030BD72
:101480006FF00200FBE76FF00200F8E708B50B4BC6
:101490001A6842F400721A601A6842F480621A6094
:1014A0001A6842F480721A60032000F02FF80F20AF
:1014B000FFF788FBFFF764FB002008BD003C0240FB
:1014C000034A1168034B1B780B441360704700BF3D
:1014D000CC0A002004000020014B1868704700BFB0
:1014E000CC0A002038B50446FFF7F6FF0546B4F1F4
:1014F000FF3F02D0044B1B781C44FFF7EDFF401B5D
:10150000A042FAD338BD00BF04000020074AD368C8
:1015100023F4E0631B041B0C000200F4E0600343AF
:1015200043F0BF6343F40033D360704700ED00E045
:1015300000B5194BDB68C3F30223C3F1070CBCF100
:10154000040F28BF4FF0040C03F1040EBEF1060F88
:1015500018D9033B4FF0FF3E0EFA0CFC21EA0C01B8
:1015600099400EFA03F322EA0303194300280BDB28
:101570000901C9B200F1604000F5614080F8001334
:101580005DF804FB0023E5E700F00F000901C9B294
:10159000024B1954F4E700BF00ED00E014ED00E049
:1015A000002807DB00F01F02400901239340024A94
:1015B00042F82030704700BF00E100E010B403683B
:1015C000D9B210390C4AA2FB014212090B4CA25CA1
:1015D000C2655F2909D923F47F7323F00303043321
:1015E0008365806D5DF8044B704723F47F7323F0AF
:1015F00003038365F5E700BFABAAAAAA109700080A
:10160000836A826992B9012B0AD0022B02D00BB1F6
:1016100000207047C36A13F0807F28D100207047F4
:10162000C36AB3F1C07F24D000207047B2F5005FD9
:1016300009D0022B25D9032B25D1C36A13F0807F53
:1016400023D100207047032B03D8DFE803F01404F4
:10165000140A00207047C36A13F0807F0DD1002068
:101660007047C36AB3F1C07F09D0002070470120E2
:10167000704701207047012070470120704701200A
:10168000704701207047002070470120704700001C
:1016900070B50446FFF720FF002C5BD005460223FF
:1016A00084F83530002384F834302268136823F03E
:1016B0000103136023681A6812F0010F0AD0FFF7C4
:1016C0000BFF431B052BF5D920236365032084F80A
:1016D000350070BD1A68204810406168A2680A434E
:1016E000E1680A4321690A4361690A43A1690A431F
:1016F000E1690A43216A0A430243616A04291ED050
:101700001A602668756925F00705636A1D43042B76
:1017100007D1A36A1D43E36A1BB12046FFF770FFA0
:1017200090B975612046FFF749FFE26D3F23934072
:10173000836000206065012384F83530C9E7E16AE1
:10174000206B01430A43DBE740236365012084F8F3
:101750003500BEE70120BCE73F8010F000230F2BCF
:1017600000F2E48070B582B060E085685E0003241A
:10177000B44025EA0405CC68B4402C438460456835
:1017800025EA02054C68C4F300129A402A434260DD
:101790005AE0DC08083450F8246003F00702950092
:1017A0000F22AA4026EA020E0A69AA4042EA0E0265
:1017B00040F824205CE0072200E0002202FA0EF24A
:1017C0002A4302345A4D45F824205A4A94686FEA55
:1017D0000C0224EA0C054E6816F4801F01D04CEA76
:1017E0000405544CA560E46802EA04054E6816F44A
:1017F000001F01D04CEA04054E4CE560646802EA23
:1018000004054E6816F4003F01D04CEA0405494C2B
:101810006560246822404D6815F4803F01D04CEA91
:101820000402444C226001330F2B7DD801229A40E0
:101830000C6804EA020C32EA0404F4D14C6804F0A7
:101840000304013C012C90D94A6802F00302032AE8
:1018500009D0C4685D000322AA4024EA02048A6811
:10186000AA402243C2604A6802F00302022A90D0D2
:1018700004684FEA430E032202FA0EF224EA02043D
:101880004A6802F0030202FA0EF2224302604A683A
:1018900012F4403FC7D000220192274A546C44F40E
:1018A00080445464526C02F480420192019A9C0874
:1018B000A51C1F4A52F8255003F003024FEA820E7E
:1018C0000F2202FA0EF225EA02051C4A90423FF46A
:1018D00074AF02F5806290421AD002F580629042A5
:1018E00018D002F58062904216D002F580629042D4
:1018F00014D002F58062904212D002F580629042CC
:1019000010D002F5806290423FF455AF082255E7AF
:10191000012253E7022251E703224FE704224DE759
:1019200005224BE7062249E702B070BD704700BFB1
:1019300000380140003C01400038024000000240F5
:101940000AB18161704709048161704770470000E6
:1019500008B5054B5B69034200D108BD024B5861D5
:10196000FFF7F4FFF9E700BF003C0140002800F05A
:10197000E08170B582B00446036813F0010F3BD0DC
:101980009F4B9B6803F00C03042B2CD09C4B9B6853
:1019900003F00C03082B21D06368B3F5803F4FD0D0
:1019A000B3F5A02F52D0964B1A6822F480321A60F9
:1019B0001A6822F480221A606368002B50D0FFF767
:1019C0008BFD05468E4B1B6813F4003F14D1FFF7C7
:1019D00083FD401B6428F5D90320B1E1884B5B6887
:1019E00013F4800FD8D0864B1B6813F4003F03D04C
:1019F0006368002B00F09F81236813F0020F54D01E
:101A00007F4B9B6813F00C0F3ED07D4B9B6803F01F
:101A10000C03082B33D0E368002B68D0794B0122EC
:101A20001A60FFF759FD0546754B1B6813F0020F4E
:101A300054D1FFF751FD401B0228F5D903207FE167
:101A40006F4A136843F480331360B5E76C4B1A6830
:101A500042F480221A601A6842F480321A60ABE7BE
:101A6000FFF73AFD0546664B1B6813F4003FC3D0F1
:101A7000FFF732FD401B6428F5D9032060E1604B7D
:101A80005B6813F4800FC6D15D4B1B6813F0020F27
:101A900003D0E368012B40F05081594A136823F0CA
:101AA000F803216943EAC1031360236813F0080FA8
:101AB00042D063696BB3534B0122C3F8802EFFF70A
:101AC0000BFD05464E4B5B6F13F0020F34D1FFF751
:101AD00003FD401B0228F5D9032031E1484A136871
:101AE00023F0F803216943EAC1031360DDE7454BA6
:101AF00000221A60FFF7F0FC0546414B1B6813F00B
:101B0000020FD2D0FFF7E8FC401B0228F5D90320D2
:101B100016E13C4B0022C3F8802EFFF7DDFC0546A2
:101B2000374B5B6F13F0020F06D0FFF7D5FC401B5D
:101B30000228F5D9032003E1236813F0040F77D0BE
:101B40002F4B1B6C13F0805F33D1002301932C4B80
:101B50001A6C42F080521A641B6C03F0805301939C
:101B6000019B0125284B1B6813F4807F23D0A368B9
:101B7000012B34D0052B38D0214B1A6F22F00102F3
:101B80001A671A6F22F004021A67A368002B3DD06F
:101B9000FFF7A2FC06461A4B1B6F13F0020F46D14B
:101BA000FFF79AFC801B41F288339842F3D9032057
:101BB000C6E00025D6E7144A136843F48073136027
:101BC000FFF78AFC0646104B1B6813F4807FCED1CA
:101BD000FFF782FC801B0228F5D90320B0E0084AF9
:101BE000136F43F001031367CFE7054B1A6F42F001
:101BF00004021A671A6F42F001021A67C5E700BFB4
:101C0000003802400000474200700040FFF764FCCB
:101C10000646524B1B6F13F0020F08D0FFF75CFC17
:101C2000801B41F288339842F3D9032088E0EDB954
:101C3000A369002B00F08380484A926802F00C02EE
:101C4000082A51D0022B17D0454B00221A66FFF705
:101C500043FC0446414B1B6813F0007F42D0FFF762
:101C60003BFC001B0228F5D9032069E03B4A136CBA
:101C700023F080531364DBE7394B00221A66FFF729
:101C80002BFC0546354B1B6813F0007F06D0FFF791
:101C900023FC401B0228F5D9032051E0E369226AA6
:101CA0001343626A43EA8213A26A5208013A43EA82
:101CB0000243E26A43EA0263284A5360284B012246
:101CC0001A66FFF709FC0446244B1B6813F0007FDB
:101CD00006D1FFF701FC001B0228F5D903202FE0F5
:101CE00000202DE000202BE0012B2BD01B4B5B684C
:101CF00003F48001E269914226D103F03F02216A98
:101D00008A4223D1616A47F6C0721A40B2EB811F42
:101D10001ED103F44031A26A5208013AB1EB024FDE
:101D200018D103F07063E26AB3EB026F14D10020A4
:101D300006E001207047012002E0012000E00020C1
:101D400002B070BD0120FBE70120F9E70120F7E7B1
:101D50000120F5E70120F3E70120F1E70038024018
:101D60000000474208B5254B9B6803F00C03042B89
:101D70003FD0082B3FD1214B5A6802F03F025B68ED
:101D800013F4800F12D01D4B5968C1F388111C4801
:101D90000023A1FB0001FEF71BFA184B5B68C3F39D
:101DA000014301335B00B0FBF3F025E0134B5968AE
:101DB000C1F3881C4FEA4C11B1EB0C006EEB0E0E18
:101DC0004FEA8E1343EA90638101091A63EB0E0315
:101DD000DB0043EA5173C90011EB0C0C43F1000323
:101DE000990200234FEA8C2041EA9C51FEF7F0F95A
:101DF000D3E7034800E0034808BD00BF00380240B5
:101E0000001BB7000024F400002800F09B8070B590
:101E10000D4604464F4B1B6803F007038B4208D264
:101E2000CBB24C4A1370136803F007038B4240F0A7
:101E30008B80236813F0020F17D013F0040F04D027
:101E4000454A936843F4E0539360236813F0080F06
:101E500004D0414A936843F4604393603E4A9368D8
:101E600023F0F003A1680B439360236813F0010F84
:101E700032D06368012B21D09A1E012A25D9364A17
:101E8000126812F0020F61D033498A6822F003020F
:101E900013438B60FFF720FB06462F4B9B6803F034
:101EA0000C036268B3EB820F16D0FFF715FB801BA3
:101EB00041F288339842F0D9032042E0264A126862
:101EC00012F4003FE0D101203BE0234A126812F0F7
:101ED000007FD9D1012034E01E4B1B6803F00703BB
:101EE000AB4207D9EAB21B4B1A701B6803F0070319
:101EF000AB422DD1236813F0040F06D0164A936825
:101F000023F4E053E1680B439360236813F0080F58
:101F100007D0114A936823F46043216943EAC1035F
:101F20009360FFF71FFF0C4B9B68C3F303130B4A2F
:101F3000D35CD8400A4B18600A4B1868FEF742FE83
:101F4000002070BD012070470120FAE70120F8E76A
:101F50000120F6E7003C024000380240F48E000801
:101F60000000002008000020014B1868704700BFE7
:101F70000000002008B5FFF7F7FF044B9B68C3F390
:101F80008223034AD35CD84008BD00BF003802401A
:101F9000048F00080F2303600B4B9A6802F00302C2
:101FA00042609A6802F0F00282609A6802F4E0529D
:101FB000C2609B68DB0803F4E0530361034B1B68BA
:101FC00003F007030B60704700380240003C0240FA
:101FD0002DE9F04782B00546884617461E46FFF7B2
:101FE0007BFA0A9B1B1A03EB0609FFF775FA824678
:101FF0002B4B1B68C3F3CB3309FB03F301932B6813
:102000009C6838EA04030CBF4FF0010C4FF0000C41
:10201000BC4540D0B6F1FF3FF1D0FFF75DFAA0EB31
:102020000A0048450AD2B9F1000F07D0019A02B15F
:102030004A46019B013B01939146E0E72A685368B9
:1020400023F0E00353606B68B3F5827F0BD0AB6A7B
:10205000B3F5005F14D0012385F85130002385F8D3
:102060005030032018E0AB68B3F5004F02D0B3F551
:10207000806FECD12A68136823F040031360E6E711
:102080002A68136823F4005313602A68136843F422
:1020900000531360DFE7002002B0BDE8F08700BF07
:1020A0000000002010B584B00446164B1868164B8B
:1020B000A3FB0030400D4FF47A7303FB00F0039054
:1020C0006368B3F5827F0BD0039BBBB1039B013BDD
:1020D000039323689B6813F0800FF5D100200EE076
:1020E00000920B46002280212046FFF771FF30B19D
:1020F000636D43F020036365032000E0002004B01B
:1021000010BD00BF00000020819F5E1600285AD03D
:1021100010B50446436A33B94368B3F5827F05D0EE
:102120000023C36102E00023036143610023A36233
:1021300094F85130002B40D0022384F851302268AB
:10214000136823F040031360636803F48273A2688A
:1021500002F404421343E26802F40062134322696A
:1021600002F002021343626902F001021343A26902
:1021700002F400721343E26902F038021343226A48
:1021800002F080021343A26A02F400522168134352
:102190000B60638B03F00403626A02F01002216893
:1021A00013434B602268D36923F40063D36100209A
:1021B0006065012384F8513010BD84F8503020460A
:1021C000FEF746FCB8E7012070472DE9F04383B0E5
:1021D0001F460A9D90F85030012B00F010810446F4
:1021E00088469146012380F85030FFF775F906467E
:1021F00094F85130DBB26268012B0AD0B2F5827FCD
:1022000040F0E380A268002A40F0E980042B40F00F
:10221000E880B8F1000F00F0E680B9F1000F00F09F
:10222000E480002F00F0E38094F85130DBB2042BFF
:1022300002D0052384F8513000236365C4F8389038
:10224000E787A787C4F83080E786A786236463649E
:1022500023681A6812F0400F03D11A6842F0400256
:102260001A60E368B3F5006F11D063680BB1012FFA
:102270000BD1226B236812781A73236B013323630B
:10228000E38E9BB2013B9BB2E38601276BE0636860
:102290000BB1012F0BD1226B23681288DA60236BFC
:1022A00002332363E38E9BB2013B9BB2E38601279B
:1022B0001CE023689A6812F0010F0ED0E28F92B2F0
:1022C0005AB1DA68A36B1A80A36B0233A363E38F5E
:1022D0009BB2013B9BB2E3870127FFF7FDF8801B10
:1022E000A84203D3B5F1FF3F40F08380E38E9BB259
:1022F0001BB9E38F9BB2002B53D023689A6812F06E
:10230000020FD6D0E28E92B2002AD2D0002FD0D0C7
:10231000226B1288DA60236B02332363E38E9BB255
:10232000013B9BB2E3860027C3E723689A6812F05B
:10233000010F0ED0E28F92B25AB1DA68A36B1A7015
:10234000A36B0133A363E38F9BB2013B9BB2E38793
:102350000127FFF7C1F8831BAB4202D3B5F1FF3F62
:1023600049D1002D49D0E38E9BB213B9E38F9BB2C4
:10237000BBB123689A6812F0020FD6D0E28E92B2F7
:10238000002AD2D0002FD0D0226B12781A73236B80
:1023900001332363E38E9BB2013B9BB2E3860027AC
:1023A000C3E7324629462046FFF77CFE48B9A368BA
:1023B00063B901932368DA6801929B680193019BDA
:1023C00004E020236365012000E00220012384F85B
:1023D0005130002384F8503003B0BDE8F083022070
:1023E000F4E70220F2E70120F0E70120EEE7012008
:1023F000ECE70320EAE70320E8E70320E6E7022012
:10240000EAE7000030B4036A23F001030362036AC1
:102410004268846924F073040D682C4323F0020C95
:102420008B6843EA0C03104DA84203D005F5806584
:10243000A84205D123F00803CD682B4323F0040301
:10244000094DA84203D005F58065A84205D122F4C4
:1024500040724D692A438D692A43426084614A680B
:102460004263036230BC70470000014030B4036A2D
:1024700023F480730362036A4268C46924F0730C16
:102480000C6844EA0C0523F400738C6843EA0423C7
:10249000114CA04203D004F58064A04206D123F47D
:1024A0000063CC6843EA042323F480630A4CA0420F
:1024B00003D004F58064A04207D122F440524C6955
:1024C00042EA04128C6942EA04124260C5614A6819
:1024D000C263036230BC70470000014030B4036A3D
:1024E00023F480530362036A4468C26922F4E6421B
:1024F0000D6842EA052223F400538D6843EA053350
:10250000094DA84203D005F58065A84204D124F402
:1025100080444D6944EA85144460C2614A6802649B
:10252000036230BC704700BF0000014090F83D30AE
:10253000DBB2012B37D1022380F83D300268D3682B
:1025400043F00103D3600368194A934220D0B3F1EA
:10255000804F1DD0A2F57C42934219D002F58062D3
:10256000934215D002F58062934211D002F5784271
:1025700093420DD002F57052934209D0A2F59432E5
:10258000934205D01A6842F001021A600020704799
:102590009A6802F00702062A07D01A6842F0010280
:1025A0001A6000207047012070470020704700BF6C
:1025B000000001407047704770477047704710B582
:1025C000044603681A6912F0020F11D0DA6812F09B
:1025D000020F0DD06FF002021A6101230377036826
:1025E0009B6913F0030F70D0FFF7E6FF00232377FA
:1025F00023681A6912F0040F12D0DA6812F0040F7F
:102600000ED06FF004021A610223237723689B69BE
:1026100013F4407F5FD02046FFF7CEFF00232377DF
:1026200023681A6912F0080F12D0DA6812F0080F46
:102630000ED06FF008021A61042323772368DB6948
:1026400013F0030F4ED02046FFF7B6FF0023237789
:1026500023681A6912F0100F12D0DA6812F0100F06
:102660000ED06FF010021A61082323772368DB690C
:1026700013F4407F3DD02046FFF79EFF00232377D1
:1026800023681A6912F0010F03D0DA6812F0010F03
:1026900036D123681A6912F0800F03D0DA6812F07D
:1026A000800F34D123681A6912F0400F03D0DA6822
:1026B00012F0400F32D123681A6912F0200F03D0B4
:1026C000DA6812F0200F30D110BDFFF774FF2046FA
:1026D000FFF773FF8AE72046FFF76DFF2046FFF7FD
:1026E0006CFF9BE72046FFF766FF2046FFF765FF7C
:1026F000ACE72046FFF75FFF2046FFF75EFFBDE730
:102700006FF001021A612046FEF7FEF8C1E76FF094
:1027100080021A61204600F004FAC3E76FF040021D
:102720001A612046FFF74AFFC5E76FF020021A61E1
:10273000204600F0F5F9C7E70368304A904212D00E
:10274000B0F1804F0FD0A2F57C4290420BD002F541
:102750008062904207D002F58062904203D002F579
:102760007842904203D123F070034A681343234A0E
:1027700090422AD0B0F1804F27D0A2F57C429042FF
:1027800023D002F5806290421FD002F58062904211
:102790001BD002F57842904217D002F57052904259
:1027A00013D002F5806290420FD002F58062904211
:1027B0000BD0A2F59832904207D002F58062904289
:1027C00003D002F58062904203D123F44073CA68BB
:1027D000134323F080034A69134303608B68C36289
:1027E0000B688362054B984203D003F580639842DF
:1027F00001D10B690363012343617047000001406D
:1028000040B310B5044690F83D30F3B1022384F88C
:102810003D30214651F8040BFFF78EFF012384F869
:10282000463084F83E3084F83F3084F8403084F8F5
:10283000413084F8423084F8433084F8443084F8DE
:10284000453084F83D30002010BD80F83C30FEF764
:102850005DFADBE70120704740B310B5044690F8FD
:102860003D30F3B1022384F83D30214651F8040B8A
:10287000FFF762FF012384F8463084F83E3084F885
:102880003F3084F8403084F8413084F8423084F896
:10289000433084F8443084F8453084F83D300020DB
:1028A00010BD80F83C30FFF785FEDBE70120704764
:1028B00030B4036A23F010030362036A4468826938
:1028C00022F4E6420D6842EA052223F020038D68D7
:1028D00043EA0513114DA84203D005F58065A842CF
:1028E00006D123F08003CD6843EA051323F04003AB
:1028F0000A4DA84203D005F58065A84207D124F40B
:1029000040644D6944EA85048D6944EA8504446065
:1029100082614A688263036230BC704700000140F4
:1029200038B590F83C30012B66D004460D460123A3
:1029300080F83C300C2A5AD8DFE802F00759595980
:102940001B5959593059595944000068FFF75AFD2D
:102950002268936943F0080393612268936923F026
:10296000040393612268936929690B4393610020F2
:102970003EE00068FFF79CFF2268936943F4006320
:1029800093612268936923F4806393612268936959
:10299000296943EA01239361002029E00068FFF7D9
:1029A00065FD2268D36943F00803D3612268D369C7
:1029B00023F00403D3612268D36929690B43D361EF
:1029C000002015E00068FFF789FD2268D36943F411
:1029D0000063D3612268D36923F48063D3612268E2
:1029E000D369296943EA0123D361002000E0012073
:1029F000002384F83C3038BD0220FCE701F01F01C1
:102A0000012303FA01FC036A23EA0C030362036A4D
:102A100002FA01F10B4303627047000010B504464F
:102A20000846002942D194F83E30DBB2013B18BF82
:102A30000123002B6ED1002851D1022384F83E30AF
:102A4000012201462068FFF7D9FF2368334A9342E9
:102A500003D002F58062934203D15A6C42F40042E3
:102A60005A6423682D4A934249D0B3F1804F46D02F
:102A7000A2F57C42934242D002F5806293423ED05E
:102A800002F5806293423AD002F57842934236D002
:102A900002F57052934232D0A2F5943293422ED076
:102AA0001A6842F001021A60002032E0042908D0BE
:102AB00008290DD094F84130DBB2013B18BF012347
:102AC000B7E794F83F30DBB2013B18BF0123B0E712
:102AD00094F84030DBB2013B18BF0123A9E704287A
:102AE00005D0082807D0022384F84130A8E7022344
:102AF00084F83F30A4E7022384F84030A0E79A68C6
:102B000002F00702062A07D01A6842F001021A6092
:102B1000002010BD0120FCE70020FAE70000014082
:102B20007047704708B54FF0E0231B6901F012FCB5
:102B3000012800D108BD00F0D5F9FBE7EFF30583CC
:102B40002BB9064B186828B901221A6070476FF03C
:102B5000050070474FF0FF30704700BF581100204C
:102B6000EFF3058373B90A4B1B68012B0DD110B528
:102B70000024084BDC77064B02221A6001F03AF978
:102B8000204610BD6FF0050070474FF0FF307047D2
:102B90005811002000ED00E0F0B587B00024059446
:102BA000EFF305847CBB70B32AB31568936903B94E
:102BB00018235C1E372C4AD8546814F0010F48D1F2
:102BC000566976B14FEA960C946834B1D768B7F578
:102BD000916F02D3176907B1C6B92CB14FF0FF341A
:102BE0000EE04FF0800CEFE7D4688CB9146994B113
:102BF0004FF0FF3404E01546002418234FF0800CFA
:102C0000012C0AD0ACB1059807B0F0BD0124F7E75C
:102C10004FF0FF34F4E70024F2E71469926802925F
:102C2000019400930B466246294601F071F8059025
:102C3000E9E705AA019200930B461FFA8CF2294698
:102C400001F0A3F80128DED000230593DBE7002084
:102C5000DAE70020D8E708B5EFF3058333B908B900
:102C6000002008BD01F032FA0020FAE76FF00500FD
:102C7000F7E70000034B0360034B0B6080231360F6
:102C8000704700BFD00C0020D00A0020034B036027
:102C9000034B0B604FF48073136070476015002086
:102CA0005C11002000F1080343604FF0FF328260A6
:102CB000C360036100230360704700230361704712
:102CC00043684B609A688A60516099600861036844
:102CD00001330360704730B40D68B5F1FF3F11D088
:102CE00000F108031C465B681A68AA42FAD96368B7
:102CF0004B6099608C606160086103680133036018
:102D000030BC70470469F2E70369416882688A60F1
:102D1000416851605A68824206D0002202611A68F6
:102D2000013A1A601868704782685A60F5E7000037
:102D300082B0002301930D4B1B68B3F1FF3F08D015
:102D40004FF0500383F31188BFF36F8FBFF34F8FA2
:102D5000FEE74FF0500383F31188BFF36F8FBFF38B
:102D60004F8F019B002BFCD002B070470C0000205D
:102D700008480068006880F308884FF0000080F37E
:102D8000148862B661B6BFF34F8FBFF36F8F00DF59
:102D900000BF000008ED00E0DFF80C00016841F41E
:102DA000700101607047000088ED00E04FF0807313
:102DB00040F8043C21F0010140F8081C054B40F8A4
:102DC0000C3C40F8202C6FF0020340F8243C4438BF
:102DD000704700BF312D0008000000000000000017
:102DE000074B19680868B0E8F04F80F30988BFF313
:102DF0006F8F4FF0000080F311887047AFF30080B1
:102E0000505600204FF0500383F31188BFF36F8FAB
:102E1000BFF34F8F0B4A136801331360012B00D0AF
:102E200070474FF0E023D3F8043D13F0FF0FF7D0C5
:102E30004FF0500383F31188BFF36F8FBFF34F8FB1
:102E4000FEE700BF0C000020094B1B6843B94FF0A0
:102E5000500383F31188BFF36F8FBFF34F8FFEE7EB
:102E6000013B034A13600BB983F31188704700BF1D
:102E70000C00002000000000000000000000000026
:102E8000EFF30980BFF36F8F154B1A681EF0100F18
:102E900008BF20ED108A20E9F04F10602DE90900ED
:102EA0004FF0500080F31188BFF34F8FBFF36F8F47
:102EB00001F032F94FF0000080F3118809BC196865
:102EC0000868B0E8F04F1EF0100F08BFB0EC108A91
:102ED00080F30988BFF36F8F704700BFAFF30080A6
:102EE0005056002008B54FF0500383F31188BFF30C
:102EF0006F8FBFF34F8F00F0E1FF28B14FF0E02359
:102F00004FF08052C3F8042D002383F3118808BDCD
:102F10004FF0E022002313619361054B1B680549C4
:102F2000A1FB03139B09013B536107231361704706
:102F300000000020D34D62104FF0E023D3F8002DA5
:102F40003D4B9A421CD04FF0E023D3F8002D3B4B71
:102F50009A421ED030B583B0394B1A78D2B2019262
:102F6000FF221A701B78DBB28DF803309DF8033016
:102F700003F05003334A1370334B07221A601BE0EF
:102F80004FF0500383F31188BFF36F8FBFF34F8F60
:102F9000FEE74FF0500383F31188BFF36F8FBFF349
:102FA0004F8FFEE7284A1368013B13609DF80330FA
:102FB0005B00DBB28DF803309DF8033013F0800F17
:102FC000F0D1214B1B68032B08D04FF0500383F343
:102FD0001188BFF36F8FBFF34F8FFEE71B021A4AB2
:102FE000136003F4E0631360019BDBB2144A1370B7
:102FF0004FF0E024D4F8203D43F47003C4F8203DA2
:10300000D4F8203D43F07043C4F8203DFFF780FF23
:1030100000250E4B1D60FFF7BFFED4F8343F43F090
:103020004043C4F8343FFFF7A3FE01F075F8FFF703
:103030007FFE284603B030BD71C20F4170C20F4100
:1030400000E400E0E8190020EC1900200C0000204A
:10305000EFF305830F2B0FD9114A9B5CDBB2114AAA
:1030600012789A4208D94FF0500383F31188BFF3C6
:103070006F8FBFF34F8FFEE74FF0E023D3F80C3D87
:1030800003F4E063084A1268934208D94FF05003F2
:1030900083F31188BFF36F8FBFF34F8FFEE7704745
:1030A000F0E300E0E8190020EC190020124A12F0C9
:1030B000070F1ED0D11D21F00701C1F57053134435
:1030C0000A460E480260002141601344083B23F089
:1030D00007030B48036059601960991A5160136027
:1030E000084B1960084B1960084B4FF000421A60FA
:1030F00070474FF47053E4E7F4190020085600209D
:10310000F0190020FC550020F8550020F45500204F
:10311000164B1A461B688342FBD3516802EB010C25
:10312000844509D0416800EB010C634509D0036078
:10313000904219D0106070474068014451601046B9
:10314000F0E710B40A4C2468A3420BD05B68194422
:10315000416013681B680360904200D010605DF806
:10316000044B70470460F7E7704700BF0856002023
:10317000F019002070B5054600F092FE364B1B6832
:10318000A3B1364B1B681D424ED135B1083515F041
:10319000070F02D025F007050835002D46D0304B2B
:1031A0001B68AB4251D32F4A146804E0FFF77EFF3F
:1031B000E7E722461C466368AB4202D22368002B35
:1031C000F7D1254B1B68A34241D016680836236807
:1031D000136063685B1B102B10D9601910F0070F88
:1031E00008D04FF0500383F31188BFF36F8FBFF304
:1031F0004F8FFEE743606560FFF78AFF62681849FA
:103200000B689B1A0B60184909688B4201D216495A
:103210000B60124B1B681343636000232360134A47
:1032200013680133136002E0002600E0002600F07E
:10323000D1FE16F0070F0CD04FF0500383F3118826
:10324000BFF36F8FBFF34F8FFEE70026EFE7002637
:10325000EDE7304670BD00BFF0190020F4550020A6
:10326000F855002008560020FC550020005600208C
:10327000002834D038B50446A0F1080550F8043CC5
:10328000174A1268134208D14FF0500383F3118894
:10329000BFF36F8FBFF34F8FFEE750F8081C41B1AB
:1032A0004FF0500383F31188BFF36F8FBFF34F8F3D
:1032B000FEE723EA020340F8043C00F0F1FD54F875
:1032C000041C084A13680B4413602846FFF720FFCC
:1032D000054A13680133136000F07CFE38BD704767
:1032E000F4550020F85500200456002010B504467F
:1032F000FFF788FDA26BE36B9A4204D00024FFF72E
:10330000A3FD204610BD0124F9E710B50446FFF7E0
:1033100079FDA36B23B90124FFF796FD204610BD6C
:103320000024F9E770B504461546866B026C5AB95D
:1033300003681BB100200136A66370BD806801F0F0
:1033400019F80023A360F6E76DB94068FDF7C2F8ED
:10335000226C636813446360A268934219D32368A4
:1033600063602846E7E7C068FDF7B4F8226C514275
:10337000E3689B1AE3602268934202D2A3680B447D
:10338000E360022D01D00020D5E726B1013E0020E8
:10339000D1E72846CFE70020CDE70346026C6AB1AB
:1033A00010B50846D9681144D9609C68A14201D380
:1033B0001968D960D968FDF78DF810BD704738B528
:1033C0000546FFF71FFD95F8454064B201E0013C5A
:1033D00064B2002C0ADD6B6A43B105F1240000F0F1
:1033E0001FFF0028F3D000F0AFFFF0E7FF2385F8C0
:1033F0004530FFF729FDFFF705FD95F8444064B21D
:1034000001E0013C64B2002C0ADD2B6943B105F1F7
:10341000100000F005FF0028F3D000F095FFF0E762
:10342000FF2385F84430FFF70FFD38BD38B5E0B114
:103430000D460446FFF7E6FC2368E26B216C01FBB6
:103440000230A0600020A0636360013A02FB0133F8
:10345000E360FF2384F8443084F84530FDB92369E4
:1034600063B9FFF7F1FC012038BD4FF0500383F33F
:103470001188BFF36F8FBFF34F8FFEE704F1100089
:1034800000F0CEFE0028ECD04FF0E0234FF0805249
:10349000C3F8042DBFF34F8FBFF36F8FE1E704F143
:1034A0001000FFF7FFFB04F12400FFF7FBFBD8E758
:1034B00038B51D46049C0B4649B92460E06323647B
:1034C00001212046FFF7B2FF84F84C5038BD22603E
:1034D000F4E740B94FF0500383F31188BFF36F8FC7
:1034E000BFF34F8FFEE710B584B01C46844653B13E
:1034F00092B189B94FF0500383F31188BFF36F8FF6
:10350000BFF34F8FFEE74FF0500383F31188BFF3F3
:103510006F8FBFF34F8FFEE76AB150230393039B76
:10352000502B13D04FF0500383F31188BFF36F8FEC
:10353000BFF34F8FFEE70029EFD04FF0500383F326
:103540001188BFF36F8FBFF34F8FFEE7039B0123FB
:1035500084F8463000949DF818306046FFF7A8FFC5
:10356000204604B010BDF0B585B0019288B10F4679
:103570001D460446B1B1022D20D1E36B012B1DD0B5
:103580004FF0500383F31188BFF36F8FBFF34F8F5A
:10359000FEE74FF0500383F31188BFF36F8FBFF343
:1035A0004F8FFEE7036C002BE5D04FF0500383F301
:1035B0001188BFF36F8FBFF34F8FFEE700F0CAFE95
:1035C000064658B9019B002B48D04FF0500383F3B7
:1035D0001188BFF36F8FBFF34F8FFEE700263DE0EA
:1035E0002A4639462046FFF79DFE636A7BB948B1FB
:1035F0004FF0E0234FF08052C3F8042DBFF34F8FFC
:10360000BFF36F8FFFF720FC012005B0F0BD04F180
:10361000240000F005FE0028F4D04FF0E0234FF026
:103620008052C3F8042DBFF34F8FBFF36F8FE9E7CC
:10363000FFF70AFC0020E8E702A800F037FE0126A9
:1036400019E0002384F8443021E0002384F8453059
:1036500023E02046FFF7B3FE00F0BCFCFFF7D2FBEF
:10366000A26BE36B9A42BBD3022DB9D0019B002B16
:10367000DED0002EE0D0FFF7E7FB00F011FCFFF7F3
:10368000C1FB94F8442052B2B2F1FF3FD9D094F874
:10369000452052B2B2F1FF3FD7D0FFF7D5FB01A9C9
:1036A00002A800F00FFED8B92046FFF71FFE002841
:1036B000CFD0019904F1100000F07EFD2046FFF705
:1036C0007EFE00F087FC0028C8D14FF0E0234FF0C9
:1036D0008052C3F8042DBFF34F8FBFF36F8FBDE748
:1036E0002046FFF76CFE00F075FC00208DE72DE909
:1036F000F84390B10F4616461C460546B1B1022C60
:1037000020D1EB6B012B1DD04FF0500383F31188B8
:10371000BFF36F8FBFF34F8FFEE74FF0500383F37C
:103720001188BFF36F8FBFF34F8FFEE7036C002B41
:10373000E5D04FF0500383F31188BFF36F8FBFF3D1
:103740004F8FFEE7FFF784FCEFF311894FF0500332
:1037500083F31188BFF36F8FBFF34F8FAA6BEB6BAF
:103760009A4206D3022C04D0002089F31188BDE8C8
:10377000F88395F845804FFA88F8AB6B22463946B6
:103780002846FFF7CFFDB8F1FF3F06D008F101034F
:103790005BB285F845300120E7E76B6A0BB9012081
:1037A000E3E705F1240000F03BFD18B126B101204C
:1037B0003060DAE70120D8E70120D6E7F0B585B020
:1037C000019290B10F460446C1B100F0C3FD064618
:1037D00000BB019B002B5ED04FF0500383F3118898
:1037E000BFF36F8FBFF34F8FFEE74FF0500383F3AC
:1037F0001188BFF36F8FBFF34F8FFEE7036C002B71
:10380000E3D04FF0500383F31188BFF36F8FBFF302
:103810004F8FFEE700263EE039462046FFF7BDFD0C
:10382000013DA563236923B9FFF70EFB012005B015
:10383000F0BD04F1100000F0F3FC0028F4D04FF0CC
:10384000E0234FF08052C3F8042DBFF34F8FBFF336
:103850006F8FE9E7FFF7F8FA0020E8E702A800F029
:1038600025FD012621E0002384F8443029E00023CF
:1038700084F845302BE02046FFF7A1FD00F0AAFBBD
:1038800009E02046FFF79BFD00F0A4FB2046FFF770
:103890003CFD00283FD1FFF7B5FAA56B002DBBD149
:1038A000019B002BD6D0002ED8D0FFF7CDFA00F028
:1038B000F7FAFFF7A7FA94F844305BB2B3F1FF3F91
:1038C000D1D094F845305BB2B3F1FF3FCFD0FFF7D2
:1038D000BBFA01A902A800F0F5FC0028D1D12046CE
:1038E000FFF713FD0028C6D0019904F1240000F071
:1038F00063FC2046FFF763FD00F06CFB0028CAD193
:103900004FF0E0234FF08052C3F8042DBFF34F8FE8
:10391000BFF36F8FBFE7002089E700000023072B6C
:103920000CD8074A52F833200AB10133F7E7044AAA
:1039300042F8331002EBC30358607047704700BF72
:103940001056002070B504460D461646FFF75AFA89
:1039500094F844305BB2B3F1FF3F0DD094F845309A
:103960005BB2B3F1FF3F0BD0FFF76EFAA36B5BB115
:103970002046FFF724FD70BD002384F84430EDE7B6
:10398000002384F84530EFE73246294604F124004D
:1039900000F02AFCECE70000084B1B681B6823B909
:1039A000074B4FF0FF321A607047044B1B68DB680F
:1039B000DB685A68024B1A60704700BF54560020FB
:1039C000FC5A00202DE9F04780460D4617469946DF
:1039D000089EDDF824A00A9C9200A521206B04F02B
:1039E00059FB236B07F18042013A03EB820727F072
:1039F0000707002D65D04FF0000CBCF10F0F0BD85E
:103A000015F80C2004EB0C0383F8342015F80C3067
:103A100013B10CF1010CF0E7002384F84330372E8A
:103A200000D93726E662E66400252565201DFFF7EC
:103A300044F904F11800FFF740F92461C6F1380693
:103A4000A6616462C4F8805484F884544FF485629B
:103A5000294604F1580004F01DFB04F55173E36599
:103A600004F56B73236604F214436366012200239A
:103A7000C4E9402343F20E33A4F808314AF6CD33AB
:103A8000A4F80A3141F23423A4F80C314EF26D63EC
:103A9000A4F80E314DF6EC63A4F810310523A4F818
:103AA00012310B23A4F814314A4641463846FFF739
:103AB0007DF92060BAF1000F01D0CAF80040BDE8DE
:103AC000F087002384F83430A9E7000038B50024DB
:103AD00007E004EB840293000E481844FFF7E2F875
:103AE0000134372CF5D90C4D2846FFF7DBF80B4C89
:103AF0002046FFF7D7F80A48FFF7D4F80948FFF740
:103B0000D1F80948FFF7CEF8084B1D60084B1C6040
:103B100038BD00BF5C560020D05A0020E45A002077
:103B2000085B0020345B0020205B002054560020FE
:103B30005856002010B50446FFF764F9224A13686E
:103B400001331360214B1B685BB1214B1B686BB9C0
:103B50001E4B1B68DA6AE36A9A4207D81B4B1C604B
:103B600004E01A4B1C601368012B29D0194A136812
:103B7000013313606364E06A174B1B68984201D9F4
:103B8000154B186000EB8000211D144B03EB8000E7
:103B9000FFF796F8FFF758F90D4B1B687BB10B4BFD
:103BA0001B68DA6AE36A9A4209D24FF0E0234FF0C9
:103BB0008052C3F8042DBFF34F8FBFF36F8F10BD3A
:103BC000FFF784FFD2E700BFBC5A00205056002008
:103BD0001C5B0020C85A0020CC5A00205C560020F4
:103BE00010B50446583004F0D7FA94F8853463B120
:103BF000012B11D0022B0ED04FF0500383F311880C
:103C0000BFF36F8FBFF34F8FFEE7206BFFF730FBE3
:103C10002046FFF72DFB10BD2046FFF729FBFAE7F2
:103C20000F4B1B68D3B110B5FFF7ECF80D4BDB68F9
:103C3000DC68201DFFF768F80B4A1368013B13602E
:103C4000074A1368013B1360FFF7FEF82046FFF7B1
:103C5000C7FF034B1B68002BE6D110BD704700BFA8
:103C6000C05A0020345B0020BC5A002008B5FFF782
:103C7000D7FF074B1B68012BF9D94FF0E0234FF01A
:103C80008052C3F8042DBFF34F8FBFF36F8FEEE761
:103C90005C56002070B504460D46174B1E68174B46
:103CA00018680430FFF730F8B4F1FF3F0DD034440A
:103CB000124B1B685C60A64210D9114B18680F4B61
:103CC00019680431FFF707F870BD002DEFD00B4BDA
:103CD000196804310B48FEF7F3FFF5E70A4B186843
:103CE000064B19680431FEF7F6FF084B1B68A34228
:103CF000EAD9064B1C60E7E7485B002050560020DD
:103D000058560020205B002054560020FC5A00200A
:103D100030B587B00B9C8CB10C9DC5B14FF491654B
:103D20000495049DB5F5916F1AD04FF0500383F3BD
:103D30001188BFF36F8FBFF34F8FFEE74FF0500333
:103D400083F31188BFF36F8FBFF34F8FFEE74FF000
:103D5000500383F31188BFF36F8FBFF34F8FFEE7DC
:103D6000049D0C9D2C63022485F885440024039453
:103D7000029505AC01940A9C0094FFF723FE0C9871
:103D8000FFF7D8FE059807B030BD2DE9F04385B0A8
:103D90000746884614461E469000FFF7EBF908B325
:103DA00081464FF49160FFF7E5F90546B0B1C0F8E0
:103DB0003090E5B1002385F88534039302950D9B7F
:103DC00001930C9B00933346224641463846FFF749
:103DD000F9FD2846FFF7AEFE012005E04846FFF753
:103DE00047FAE6E74FF0FF3005B0BDE8F0834FF04B
:103DF000FF30F9E710B588B000240594069407AAAF
:103E000006A905A8FEF736FF059B0293069B0193C2
:103E100000942346079A1A491A48FFF779FF1A4B6C
:103E2000186040B100F05AFB012806D0B0F1FF3F06
:103E30001DD008B010BD0020F6E74FF0500383F30B
:103E40001188BFF36F8FBFF34F8F104B1B68583330
:103E50000F4A13600F4B4FF0FF321A600E4B0122D6
:103E60001A600E4B00221A60FFF766F8E1E74FF088
:103E7000500383F31188BFF36F8FBFF34F8FFEE7BB
:103E8000189700086D3C0008F85A00205056002092
:103E9000B0000020FC5A00201C5B0020485B002082
:103EA000024A136801331360704700BFC45A0020F0
:103EB000014B1868704700BF485B0020F8B53A4BCB
:103EC0001B68002B69D1394B1D6801351D60C5B9D0
:103ED000374B1B681B6843B14FF0500383F31188C5
:103EE000BFF36F8FBFF34F8FFEE7314A1168314B3D
:103EF000186810601960304A136801331360FFF7C7
:103F00004BFD2E4B1B68AB423DD900272C4B1B6849
:103F1000DB6A03EB83039A002A4B9B58012B00D9E1
:103F20000127294B1B68002B3CD001273AE00127D1
:103F30001F4B1B681B6843B31D4B1B68DB68DC68A9
:103F400063689D4226D3261D3046FEF7DDFEA36A38
:103F50001BB104F11800FEF7D7FEE36A1B4A126892
:103F6000934201D9194A136003EB83039A00314647
:103F700014481044FEF7A4FEE26A114B1B68DB6A8A
:103F80009A42D4D2D4E70027D2E70C4B4FF0FF324D
:103F90001A60BBE7094A1360B8E70D4A136801339A
:103FA000136000273846F8BDC45A0020485B002043
:103FB0005456002058560020005B0020FC5A002078
:103FC000505600205C5600204C5B0020CC5A00204C
:103FD000045B002038B5354B1B6843B94FF05003E4
:103FE00083F31188BFF36F8FBFF34F8FFEE7FEF7A8
:103FF00009FF2E4B1A68013A1A601B68002B4FD13B
:104000002B4B1B680BB900244BE00024294B1B6889
:104010001BB3284BDB68DC6804F11800FEF774FE64
:10402000251D2846FEF770FEE06A234B1B68984268
:1040300001D9214B186000EB800029461F4B03EB90
:104040008000FEF73DFEE26A1D4B1B68DB6A9A4268
:10405000DCD31C4B01221A60D8E70CB1FFF79CFCA3
:10406000194B1C6884B9174B1C68D4B14FF0E0237E
:104070004FF08052C3F8042DBFF34F8FBFF36F8F03
:1040800001240EE0013C07D0FFF718FF0028F9D00B
:104090000C4B01221A60F5E70B4B00221A60E2E795
:1040A0000024FEF7D1FE204638BD00BFC45A0020D0
:1040B000BC5A0020085B0020CC5A00205C5600202F
:1040C000505600204C5B0020045B002010B5A8B1C6
:1040D0000446104B1B6843B14FF0500383F3118823
:1040E000BFF36F8FBFF34F8FFEE7FFF7D9FE0021BD
:1040F0002046FFF7CFFDFFF76DFF48B94FF0E023F3
:104100004FF08052C3F8042DBFF34F8FBFF36F8F72
:1041100010BD00BFC45A0020214B1B681BB1214BAE
:1041200001221A6070471F4B00221A601E4B1B6849
:1041300003EB83018A001D498A585AB90BB1013B30
:10414000F6E74FF0500383F31188BFF36F8FBFF38F
:104150004F8FFEE703EB830082000A4450684068FB
:10416000506003EB830C4FEA8C0208321144884202
:104170000FD003EB830291000C4A0A445268D168C5
:104180000B4A116008490B6013685833094A1360E1
:104190007047406862469100044A0A445060E8E76C
:1041A000C45A00204C5B0020CC5A00205C560020F2
:1041B00050560020B000002058B110B50C46094AF6
:1041C00011681831FEF787FD01212046FFF762FDD7
:1041D00010BD4FF0500383F31188BFF36F8FBFF30F
:1041E0004F8FFEE75056002038B570B10D4614468B
:1041F0000A4A11681831FEF763FD0CB14FF0FF3524
:1042000021462846FFF746FD38BD4FF0500383F3A3
:104210001188BFF36F8FBFF34F8FFEE7505600201A
:1042200038B5C368DC6824B304F118052846FEF7E6
:104230006BFD184B1B682BBB251D2846FEF764FD44
:10424000E06A154B1B68984201D9134B186000EBCC
:1042500080002946114B03EB8000FEF731FDE26A36
:104260000F4B1B68DB6A9A4211D901200D4B186075
:1042700038BD4FF0500383F31188BFF36F8FBFF346
:104280004F8FFEE729460848FEF71AFDE7E70020B2
:10429000EEE700BFC45A0020CC5A00205C56002034
:1042A000505600204C5B0020085B0020034B1B682D
:1042B0000360034B1B684360704700BF005B002036
:1042C000485B0020F8B5C8B10C460546F9B1FEF7C9
:1042D00099FD1B4B19686B68C81A2268B2F1FF3F41
:1042E00026D0184E36682F68B74201D08B4224D9A9
:1042F000824215D80023236001241AE04FF05003B6
:1043000083F31188BFF36F8FBFF34F8FFEE74FF03A
:10431000500383F31188BFF36F8FBFF34F8FFEE716
:104320005B1A134423602846FFF7C0FF002400E017
:104330000024FEF789FD2046F8BD0124F9E700BFFF
:10434000485B0020005B0020014B01221A6070478F
:104350004C5B0020054B1B6833B1054B1B680BB150
:104360000020704702207047012070471C5B00202E
:10437000C45A002000283BD038B504461E4B1B68A9
:10438000834208D04FF0500383F31188BFF36F8F3F
:10439000BFF34F8FFEE7036D43B94FF0500383F334
:1043A0001188BFF36F8FBFF34F8FFEE7013B0365AB
:1043B000C16AC26C91421DD00BB1002038BD051DF1
:1043C0002846FEF7A1FCE06CE062C0F13803A3616F
:1043D0000A4B1B68984201D9084B186000EB80001B
:1043E0002946074B03EB8000FEF76AFC0120E5E756
:1043F000002070470020E1E750560020CC5A0020F2
:104400005C560020064B1A6813682BB90123036021
:1044100023B9D368186870470023F8E70020704775
:10442000505B002008B54160006191420CD8D21A5F
:1044300083699A4201D3012008BD011D094B186808
:10444000FEF749FC0020F7E79A4201D2994206D2D2
:10445000011D054B1868FEF73EFC0020ECE701202B
:10446000EAE700BF545B0020505B002030B583B00A
:10447000FEF7C8FC114B1B681BB1FEF7E5FC03B04F
:1044800030BD0F4D2846FEF70DFC0E4C2046FEF7C2
:1044900009FC0D4B1D600D4B1C60002300930C4B61
:1044A0000C4A10210A20FFF714F8044B186000286A
:1044B000E3D00949FFF732FADFE700BF745C002060
:1044C000F85B00200C5C0020505B0020545B002057
:1044D000245C0020585B00202097000810B588B0AD
:1044E000FFF7C4FF124B1B68CBB100240594069460
:1044F00007AA06A905A8FEF7C9FB059B0293069B20
:104500000193022300932346079A0A490A48FFF7BA
:10451000FFFB0A4B186010B1012008B010BD4FF02E
:10452000500383F31188BFF36F8FBFF34F8FFEE704
:10453000745C00202897000841480008785C00203F
:10454000B8B19C4603461848006858B300B585B01A
:1045500000910192029305291CDCFFF7FBFE022863
:1045600010D000231A4669460F480068FEF7FBFF8B
:1045700015E04FF0500383F31188BFF36F8FBFF343
:104580004F8FFEE70023069A694607480068FEF74A
:10459000EAFF04E0002362466946FFF7A8F805B089
:1045A0005DF804FB00207047745C002070B582B099
:1045B0001B4B1B681A6862B3DB681E68DC68251D2C
:1045C0002846FEF7A1FB236A2046984794F8283036
:1045D00013F0040FECD0A36933449E4207D263600A
:1045E000246129460E4B1868FEF775FBE0E70021B1
:1045F00000910B4632462046FFF7A2FF0028D7D194
:104600004FF0500383F31188BFF36F8FBFF34F8FC9
:10461000FEE7044A106802490860136002B070BDEA
:10462000505B0020545B002038B50546FFF740FC86
:104630000446074B1B68834205D800232B60044BBC
:104640001C60204638BDFFF7B1FF01232B60F6E761
:10465000205C002070B582B006460D4617490968F7
:10466000C968CC68201DFEF74FFB94F828C01CF0E9
:10467000040F08D12CF0010C84F828C0236A2046CE
:10468000984702B070BDA16933462A46314420469E
:10469000FFF7C8FE0028F1D0002100910B463246FA
:1046A0002046FFF74DFF0028E8D14FF0500383F379
:1046B0001188BFF36F8FBFF34F8FFEE7505B002071
:1046C00070B582B006460C46FFF7EAFB01A8FFF77B
:1046D000ABFF019B33BB05460CB9B04219D224B1E4
:1046E000124A12681268DAB901242246711B104B73
:1046F0001868FFF727F9FFF76DFCA8B94FF0E02322
:104700004FF08052C3F8042DBFF34F8FBFF36F8F6C
:104710000AE0FFF75FFC29463046FFF79BFF03E006
:104720001C46E2E7FFF756FC02B070BD545B002068
:10473000745C002010B588B002E0049B002B0FDAF7
:10474000002204A93D4B1868FFF738F8002873D001
:10475000049B002BF1DA07990698059B9847ECE734
:10476000069C636913B1201DFEF7CEFA03A8FFF77C
:104770005BFF049B092BE3D8DFE803F00505053058
:1047800037500505303794F8283043F0010384F89A
:104790002830059BA169024619442046FFF742FED6
:1047A0000028CDD0236A2046984794F8283013F08B
:1047B000040FC5D0A269002100910B460598024460
:1047C0002046FFF7BDFE0028BAD14FF0500383F317
:1047D0001188BFF36F8FBFF34F8FFEE794F8283037
:1047E00023F0010384F82830AAE794F8283043F036
:1047F000010384F828300599A16131B103460246CE
:1048000001442046FFF70EFE9AE74FF0500383F372
:104810001188BFF36F8FBFF34F8FFEE794F82830F6
:1048200013F0020F04D023F0010384F8283087E747
:104830002046FEF71DFD83E708B010BD745C002024
:1048400000B583B001A8FFF7DDFD0199FFF738FF40
:10485000FFF770FFF6E7000008B5002210210248BC
:10486000FDF76EF808BD00BF0000024008B5012248
:1048700010210248FDF764F808BD00BF00000240A7
:1048800008B5002201210248FDF75AF808BD00BF13
:104890000004024008B5012211460248FDF750F815
:1048A00008BD00BF0004024000B587B08DF80F00BE
:1048B0004FF47A73009301230DF117020DF10F01EC
:1048C00004480068FDF781FC9DF8170007B05DF80B
:1048D00004FB00BF7C5C002038B50D46144640F058
:1048E0008000FFF7E1FF06E05520FFF7DDFF05F848
:1048F000010B013CE4B2002CF6D138BD10B50C46DA
:10490000FFF7D2FF2046FFF7CFFF10BD10B50C46D2
:1049100040F08000FFF7C8FF5520FFF7C5FF20706B
:1049200010BD000030B52DED048B89B00446C54B99
:1049300093E803000690ADF81C10090C8DF81E10CA
:1049400000238DF81F3001F0CDFBBF4B83ED000A33
:1049500001F0C8FBBC4BD3ED007A30EE670AF2EEF3
:10496000047AB4EEE70AF1EE10FA0CDC9FEDB70A18
:1049700001F0DEFB002323636362A362E362B0EE17
:10498000689A0025DAE0B24B6362B24BA362E3623D
:10499000B14B2363B14BA36194ED0C7ADFEDB06AA8
:1049A000C6EE877AC4ED087A09B0BDEC048B30BD41
:1049B0009DF81B301B021BB29DF81A20134307EE13
:1049C000103AA84BD3ED006AB8EEC77A27EE267AE4
:1049D00084ED037AD4ED097A37EE877A84ED097A8B
:1049E0009DF81D301B021BB29DF81C20134307EEDF
:1049F000103AB8EEC77A27EE267A84ED047AD4ED21
:104A00000A7A37EE877A84ED0A7A9DF81F301B0206
:104A10001BB29DF81E20134307EE903AF8EEE77A9A
:104A200067EEA67AC4ED057A94ED0B7A77EE277AD5
:104A3000C4ED0B7AE6E00023022B0DD89A1C04EBA0
:104A40008202516808AA02EB830242F8141C42F861
:104A5000201C0133DBB2EFE7B0EE688A78EEC86A5B
:104A6000814BC3ED006A00233BE00133DBB2022B34
:104A700024D819469A1C04EB8202D2ED017A08AAC6
:104A800002EB830212ED057AF4EEC77AF1EE10FA2A
:104A900004DD08AA02EB830242ED057A08AA02EBC4
:104AA000810212ED087AF4EEC77AF1EE10FADCD545
:104AB00008AA02EB810141ED087AD6E7F0EE498AB7
:104AC000CCE708AA02EB830252ED057A12ED087AD0
:104AD00077EEC77A654A02EB8302C2ED007A0133B2
:104AE000DBB2022BEDD9F6EE007AF4EEE76AF1EED6
:104AF00010FA00F39C805D4B93ED007ADFED5C7A59
:104B0000B4EEE77AF1EE10FA00F3918093ED017ABA
:104B1000B4EEE77AF1EE10FA00F3898093ED027AB1
:104B2000B4EEE77AF1EE10FA00F381809FED510ABE
:104B300001F0FEFA0135ADB2B0EE689A41F26F7342
:104B40009D4272D8FFF788FE9220FFF7ADFE062245
:104B500006A91220FFF7C0FEFFF788FE9DF8193066
:104B60001B021BB29DF81820134300EE103AB8EE5A
:104B7000C00A414AD2ED007A20EE270A84ED000AED
:104B80009DF81B301B021BB29DF81A100B4307EE59
:104B9000103AD2ED006AB8EEC77A27EE267A84ED95
:104BA000017A9DF81D301B021BB29DF81C20134397
:104BB00007EE903AF8EEE77A67EEA67AC4ED027A4D
:104BC00020EE000A27EE077A30EE070A67EEA77A92
:104BD00030EE270A03F05AFDF0EE408AD4ED0C7A4D
:104BE00077EE807AC4ED0C7AFFF74AFE082206A918
:104BF0000020FFF771FEFFF74DFE9DF818300F2BD8
:104C00003FF4D6AE002D3FF416AFB4EEE89AF1EEC5
:104C100010FA01D5B0EE689AB4EEE88AF1EE10FA17
:104C200001DDB0EE688A002321E7F0EE498AD4ED79
:104C30000C6A9FED127AC6EE877AC4ED0C7A0023D7
:104C40002CE000BF648E0008D85C00200AD7A33B8C
:104C5000AC38223BB016CE393F161B410000204233
:104C6000C3F51C4114000020C45C0020C85C002077
:104C70009A99193E6F12033A100000200080BB453C
:104C800003F1080204EB8202D2ED016A1FED057AFE
:104C9000C6EE877AC2ED017A0133DBB2022BEFD97F
:104CA000FFF7DAFDA220FFF7FFFD022206A922206E
:104CB000FFF712FEFFF7DAFD9DF818209DF8193076
:104CC0005B0943EAC203B3F5806F01DBA3F5006320
:104CD00007EE903AF8EEE77AB4EE007A67EE877A5C
:104CE000B3EE077A77EE877AC4ED067A2D4A1388F9
:104CF000013313802C4B93ED007AF6EE007AB4EE7C
:104D0000E77AF1EE10FA3FF723AED4ED0C7A9FED7F
:104D1000277A77EEC77AF0EEE77AB6EE007AF4EE0D
:104D2000C77AF1EE10FA3FF713AE214B93ED007AFC
:104D3000DFED207AB4EEE77AF1EE10FA3FF708AE35
:104D400093ED017AB4EEE77AF1EE10FA3FF700AE98
:104D500093ED027AB4EEE77AF1EE10FA3FF7F8AD90
:104D6000D4ED097AF0EEE77A9FED137AF4EEC77A84
:104D7000F1EE10FA3FF7ECADD4ED0A7AF0EEE77AF7
:104D8000F4EEC77AF1EE10FA3FF7E2ADD4ED0B7A0C
:104D9000F0EEE77AF4EEC77AF1EE10FA3FF7D8AD0D
:104DA000FAE500BFC05C0020C45C0020CDCC1C41F3
:104DB000C85C00209A99193E0AD7233C70B5FFF7CA
:104DC0004BFD8020FFF770FD5520FFF76DFD55204E
:104DD000FFF76AFD464C2070FFF748FD0120FCF705
:104DE00081FBFFF739FD8020FFF75EFD5520FFF7BF
:104DF0005BFD5520FFF758FD2070FFF737FD0120C0
:104E0000FCF770FBFFF728FDB6217E20FFF776FD4B
:104E1000FFF72CFD5020FCF765FBFFF71DFD802000
:104E2000FFF742FD5520FFF73FFD5520FFF73CFD02
:104E30002070FFF71BFD0120FCF754FBFFF70CFD72
:104E40008020FFF731FD5520FFF72EFD5520FFF79D
:104E50002BFD2070FFF70AFD0120FCF743FB2378B0
:104E60001E2B42D1234B00221A7002E00133214A4B
:104E70001370204B1B78052B35D8FFF7EDFC1D4D2B
:104E80002B781D4C03EB4303E2185178E05CFFF7ED
:104E900035FDFFF7EBFC0120FCF724FBFFF7DCFC02
:104EA0002B7803EB4303E05C40F08000FFF7FCFC51
:104EB0005520FFF7F9FC5520FFF7F6FC0C4E30703B
:104EC000FFF7D4FC0120FCF70DFB2B7803EB43022A
:104ED0001444617832789142C8D0A27807490878A2
:104EE00002430A70C2E7002070BDFF20FCE700BF4C
:104EF000D45C0020DC5C002030970008C25C0020FD
:104F000070B5FFF7BDFC3F4C21460020FFF7FEFCCB
:104F1000FFF7C0FC0120FCF7E5FAFFF7B1FC2146E2
:104F20000020FFF7F3FCFFF7B5FC0120FCF7DAFAED
:104F3000FFF7A6FCB6211420FFF7E0FCFFF7AAFC60
:104F40005020FCF7CFFAFFF79BFC21460020FFF72B
:104F5000DDFCFFF79FFC0120FCF7C4FAFFF790FC93
:104F600021460020FFF7D2FCFFF794FC0120FCF75C
:104F7000B9FA23780F2B42D1234B00221A7003E099
:104F8000214A1378013313701F4B1B78052B34D83B
:104F9000FFF776FC1C4D2B781C4C03EB4303E21807
:104FA0005178E05CFFF7AAFCFFF774FC0120FCF7E6
:104FB00099FAFFF765FC134E2B7803EB4303314658
:104FC000E05CFFF7A3FCFFF765FC0120FCF78AFA21
:104FD0002B7803EB43021444617832789142CFD0AE
:104FE000013BDBB22B7003EB4303094A13449B786C
:104FF000084A11780B431370C2E7002070BDFF20F0
:10500000FCE700BFD45C0020DC5C00204497000873
:1050100030970008C25C002038B50D46114B18606F
:10502000114C00232370FFF7C9FE2378184320702A
:10503000FFF766FF23781843207075B90B4B0C4AB5
:105040005A620C4A9A62DA620B4A1A630B4A1A6273
:105050000B4A9A61044B187838BD0448FFF762FC8C
:10506000F8E700BF7C5C0020C25C0020805C002070
:10507000AC38223BB016CE393F161B41C48B813F62
:105080000000204238B50546FFF7E6FB9220FFF707
:105090000BFC734C062221461220FFF71DFCFFF784
:1050A000E5FB63781B021BB2227813436D4A138021
:1050B00007EE903AF8EEE77A6B4991ED007A67EEE9
:1050C000877A95ED087A67EE877AC5ED007AE378FE
:1050D0001B021BB2A07803431380D1ED006A07EED8
:1050E000903AF8EEE77A67EEA67A67EE277AC5ED92
:1050F000017A63791B021BB221790B43138007EEFF
:10510000903AF8EEE77A67EEA67A67EE277AC5ED71
:10511000027AFFF7B5FB082221460020FFF7DCFBEF
:10512000FFF7B8FB23780F2B2BD0FFF795FBA220BE
:10513000FFF7BAFB4A4C022221462220FFF7CCFBA4
:10514000FFF794FB227863785B0943EAC203454A80
:105150001380B3F5806F02DBA3F500631380414B2E
:10516000B3F9003007EE903AF8EEE77AB4EE007A41
:1051700067EE877AB3EE077A77EE877AC5ED077A1E
:1051800038BD3A4B1B78002B3AD0E3781B021BB298
:10519000A1780B4333490B803548D0ED006A07EE08
:1051A000903AB8EEE77A27EE267AD5ED097A37EE0F
:1051B000677A85ED037A63791B021BB2207903437A
:1051C0000B8007EE903AB8EEE77A27EE267AD5ED17
:1051D0000A7A37EE677A85ED047AE3791B021BB20F
:1051E000A27913430B8007EE903AF8EEE77A67EE68
:1051F000A67A95ED0B7A77EEC77AC5ED057A94E736
:10520000174AD3781B021BB291780B4315490B80C8
:105210001748D0ED006A07EE903AB8EEE77A27EE2D
:10522000267A85ED037A53791B021BB2107903436A
:105230000B8007EE903AB8EEE77A27EE267A85EDF6
:10524000047AD3791B021BB2927913430B8007EEC9
:10525000903AF8EEE77A67EEA67AC5ED057A64E74C
:10526000B85C0020B45C0020100000201800002072
:1052700014000020F6EE007A60EE277A10EE103A65
:10528000074AA2EB630307EE103A67EE277A67EE50
:10529000277AB7EE080A30EE670A27EE000A704751
:1052A000865A375F10B52DED048B0446D0F8EC30EC
:1052B00093ED009A5C4A82ED009A93ED018A5B4A75
:1052C00082ED008AD3ED028A594AC2ED008AD3EDFD
:1052D000039A584BC3ED009A69EE097A28EE080A42
:1052E00077EE807A28EEA80A77EE807A29EEA90A6E
:1052F00037EE800AFFF7BEFF4F4B83ED000A002315
:105300000BE0D4F8EC2002EB8302D2ED007A67EEDA
:10531000807AC2ED007A0133DBB2032BF1D9474B1F
:1053200093ED6F7A28EE077AD4F80021F6EE007A32
:1053300027EE277A82ED047A93ED6F7A28EE877A4A
:10534000D4F8002127EE277A82ED057A93ED6F7A63
:1053500029EE477AD4F8002127EE277A82ED0A7ADF
:1053600093ED6F7A29EE877AD4F8002127EE277A19
:1053700082ED0B7A93ED6F7A69EEC79AD4F800212B
:1053800069EEA79AC2ED109A93ED6F7A29EE479ACB
:10539000D4F8002129EE279A82ED119A93ED6F7AC5
:1053A00068EE878AD4F8002168EEA78AC2ED168AD3
:1053B00093ED6F7A28EE478AD4F8002128EE278AE9
:1053C00082ED178AD4F8F82093ED747AD2ED1C6A36
:1053D000C6EE877AC2ED1C7AD4F8F82093ED747A81
:1053E000D2ED236AC6EE877AC2ED237AD4F8F8307C
:1053F00093ED1C7ADFED127AB4EEE77AF1EE10FA53
:1054000001DDC3ED1C7AD4F8F83093ED237ADFED9B
:105410000C7AB4EEE77AF1EE10FA01DDC3ED237AEF
:10542000BDEC048B10BD00BF745F00207C5F0020CA
:10543000845F00208C5F0020905F0020705D002062
:1054400000401C4638B504469022D0F8F8100848B1
:10545000FBF740F848252A46D4F81C110548FBF70D
:1054600039F82A46D4F80C110348FBF733F838BD55
:105470001C000020285D0020E05C00202DE9F84F92
:10548000044600F1780500F1800739462846FBF70D
:10549000B1FF84F8C800B4F87830A4F8A830B4F8A4
:1054A0005A30A4F8AA3004F1580A04F1A808424678
:1054B00051462846FBF7CAFE84F8C800B4F8A83065
:1054C000A4F8B030B4F88230A4F8B23004F1B009D6
:1054D0004A4639464046FBF7B9FE84F8C800B4F89E
:1054E0009030A4F8A030B4F89230A4F8A23004F1BF
:1054F000A0052A4604F190014846FBF747FD84F8D1
:10550000C80049462846FBF793FD84F8C800D4F844
:10551000EC30D3ED007AC44AC2ED007A93ED016A13
:10552000C24A82ED006AD3ED026AC14AC2ED006A46
:1055300093ED037ABF4B83ED007AB4F87830A4F88A
:10554000B8300123A4F8BA3066EE075A27EEA65AFF
:1055500075EEC55AD4F82C3175EEA55AC3ED005A34
:1055600067EE865A26EE875A75EE855AD4F82C31A6
:1055700075EEA55AC3ED015A67EEA77A26EE066AC4
:1055800077EEC67A66EEA66A77EEE67A27EE077AB7
:10559000D4F82C3177EE877AC3ED027A002512E039
:1055A000D4F82C3103EB850393ED000AB0EEC00A6A
:1055B00003F012F805F160029F4B03EB820383EDC9
:1055C000010A0135EDB2022DEAD9B4F84830A4F849
:1055D000C0304FF0010BA4F8C2B004F1B80504F1DB
:1055E000C0063246294604F14800FBF7B5FE84F8B0
:1055F000C800B4F8C030A4F8A830A4F8AAB0424655
:1056000031464846FBF722FE84F8C800A4F8B8B03B
:10561000B4F8C030A4F8BA3029463046FBF7EAFEA9
:1056200084F8C800DFF810B20BF5E0724146284656
:10563000FBF70CFE84F8C8009BED727ADBED737A01
:10564000F6EE006A67EEA66AB4EEE67AF1EE10FABC
:1056500002D501228BF83821B4EEE77AF1EE10FA88
:1056600045DD754B93F83831002B40D0724B93F8E1
:105670003931DBB1704AD2F84031D2F844110133EC
:1056800041F10001C2F84031C2F844116A4BD3F82D
:105690004021D3F84431332A73F100030CD30023A3
:1056A000654A82F8383184F82C3046E0624B00209D
:1056B0000021C3E95001E9E7227B604D2B8803FB01
:1056C00002F2D4F8EC10D4F8E800FAF703FF227BDA
:1056D0002B8802FB03F303FB02F2D4F8FC10D4F88E
:1056E000F800FAF7F7FE012384F82C309AE0DFED9A
:1056F000546A67EEA66AB4EEE67AF1EE10FA0FDDB0
:105700004D4B93F838315BB137EEC77ADFED4D6A18
:1057100067EEA67AC7EE276A474BC3ED676A04E0D7
:10572000454B4FF07E52C3F89C21434B0020002193
:10573000C3E95001002384F82C30B4F85830A4F8A1
:10574000A830B4F88230A4F8AA3042463946504610
:10575000FBF77CFD84F8C80004F198073A464946F7
:105760004046FBF773FD84F8C80000230EE0D4F830
:105770001C2102EB8302304991ED677AD2ED007A69
:1057800067EE877AC2ED007A0133DBB2B4F8982075
:10579000B4F89A1001FB02F29342E8DB042201E024
:1057A0000132D2B2052A1DD80023022BF8D8D4F832
:1057B0001C1102EB4200184401EB800102F15C0C69
:1057C0001D4800EB8C00D0ED016ADFED1F7A86EEFC
:1057D000A77AD1ED007A67EE877AC1ED007A0133BE
:1057E000DBB2E2E7B4F89830A4F8B8300123A4F8AB
:1057F000BA302A4631463846FBF728FD84F8C800FF
:105800000D4B93F83831002B4DD1D4F8BC30002229
:10581000DA6004F13002294604F13800FBF7B6FBE8
:1058200084F8C800BDE8F88F705F0020785F002022
:10583000805F0020885F0020705D0020766100207E
:10584000CDCCCC3D6666663FDA0FC93F0133DBB293
:10585000052BDAD8D4F8BC10980001EB830191ED48
:10586000007A124AD2ED6F7ADFED116A67EEA67AFE
:10587000B4EEE77AF1EE10FA01DDC1ED007AD4F86A
:10588000BC20024492ED007A0849D1ED6F7ADFED39
:10589000096A67EEA67AB4EEE77AF1EE10FAD5D58A
:1058A000C2ED007AD2E70423D2E700BF705D00208A
:1058B0000AD7233C0AD723BC10B52DED048B044630
:1058C000D0F8EC3093ED009A39EE099A2E4A82ED29
:1058D000009A93ED018A38EE088A2C4A82ED008AFC
:1058E000D3ED029A79EEA99A294AC2ED009AD3ED36
:1058F000038A78EEA88A274BC3ED008A827B264B69
:105900001B8802FB03F3027B03FB02F20021D0F8A9
:105910000C0102F0BFFBD4F80C31F1EE697AC3ED53
:10592000007AD4F80C31C3ED018AD4F80C31B1EE11
:10593000497A83ED027AD4F80C3183ED038AD4F8E6
:105940000C3183ED068AD4F80C3183ED079AD4F834
:105950000C31C3ED088AD4F80C31C3ED099AD4F8A0
:105960000C3183ED0C9AD4F80C31B1EE488A83EDFA
:105970000D8AD4F80C31C3ED0E7AD4F80C31C3ED96
:105980000F8ABDEC048B10BD545F0020585F0020CF
:105990005C5F0020605F00207661002038B52F4BEF
:1059A00001221A7083ED6C0AC3ED6D0A83ED6E1A45
:1059B0002B4AC3F8CC21002283F838210020002193
:1059C000C3E95001C3E95201F7EE007AF4EEE71A99
:1059D000F1EE10FA01DDF0EE671A204CC4ED741AF6
:1059E00084ED642A032300220621201D01F022FBFE
:1059F00004F5E4730122114604F5E070FBF714FB93
:105A0000D4F8EC304FF07E521A60D4F8EC2000232A
:105A10005360D4F8EC209360D4F8EC20D360114BA1
:105A2000C4F8D030104BC4F8D430104BC4F8D83080
:105A30000F4BC4F8DC30012384F82E3084F82F306B
:105A400090252A460B49D4F80401FAF743FD2A466B
:105A50000949D4F8FC00FAF73DFD38BD705D00201F
:105A600077CC2B3245540008A5520008B9580008DD
:105A70007D540008589700081C00002010B52DED3B
:105A8000088BF0EE409AB0EE608AB0EE419AB0EE2C
:105A900061BAF0EE42AAB0EE62AAF0EE438A894BF8
:105AA0001B78002B00F0B880864CC4ED6F8A94ED13
:105AB000580A39EEC00A84ED5B0AD4ED590A38EE73
:105AC000608A84ED5C8A94ED5A1A39EE411A84EDAD
:105AD0005D1AF6EE007A20EE279A29EE289A7A4B84
